{
  "_format": "hh-sol-artifact-1",
  "contractName": "GameMessenger",
  "sourceName": "contracts/GameMessenger.sol",
  "abi": [
    {
      "anonymous": false,
      "inputs": [
        {
          "indexed": true,
          "internalType": "uint256",
          "name": "id",
          "type": "uint256"
        },
        {
          "indexed": true,
          "internalType": "address",
          "name": "author",
          "type": "address"
        },
        {
          "indexed": true,
          "internalType": "bytes32",
          "name": "roomKey",
          "type": "bytes32"
        },
        {
          "indexed": false,
          "internalType": "uint64",
          "name": "timestamp",
          "type": "uint64"
        },
        {
          "indexed": false,
          "internalType": "string",
          "name": "text",
          "type": "string"
        }
      ],
      "name": "MessagePosted",
      "type": "event"
    },
    {
      "inputs": [],
      "name": "GLOBAL_ROOM",
      "outputs": [
        {
          "internalType": "bytes32",
          "name": "",
          "type": "bytes32"
        }
      ],
      "stateMutability": "view",
      "type": "function"
    },
    {
      "inputs": [],
      "name": "MAX_TEXT_LENGTH",
      "outputs": [
        {
          "internalType": "uint256",
          "name": "",
          "type": "uint256"
        }
      ],
      "stateMutability": "view",
      "type": "function"
    },
    {
      "inputs": [
        {
          "internalType": "uint256",
          "name": "id",
          "type": "uint256"
        }
      ],
      "name": "getMessage",
      "outputs": [
        {
          "components": [
            {
              "internalType": "address",
              "name": "author",
              "type": "address"
            },
            {
              "internalType": "uint64",
              "name": "timestamp",
              "type": "uint64"
            },
            {
              "internalType": "bytes32",
              "name": "roomKey",
              "type": "bytes32"
            },
            {
              "internalType": "string",
              "name": "text",
              "type": "string"
            }
          ],
          "internalType": "struct GameMessenger.Message",
          "name": "",
          "type": "tuple"
        }
      ],
      "stateMutability": "view",
      "type": "function"
    },
    {
      "inputs": [
        {
          "internalType": "bytes32",
          "name": "roomKey",
          "type": "bytes32"
        },
        {
          "internalType": "uint256",
          "name": "limit",
          "type": "uint256"
        }
      ],
      "name": "getRecentMessages",
      "outputs": [
        {
          "components": [
            {
              "internalType": "address",
              "name": "author",
              "type": "address"
            },
            {
              "internalType": "uint64",
              "name": "timestamp",
              "type": "uint64"
            },
            {
              "internalType": "bytes32",
              "name": "roomKey",
              "type": "bytes32"
            },
            {
              "internalType": "string",
              "name": "text",
              "type": "string"
            }
          ],
          "internalType": "struct GameMessenger.Message[]",
          "name": "out",
          "type": "tuple[]"
        }
      ],
      "stateMutability": "view",
      "type": "function"
    },
    {
      "inputs": [
        {
          "internalType": "bytes32",
          "name": "roomKey",
          "type": "bytes32"
        },
        {
          "internalType": "string",
          "name": "text",
          "type": "string"
        }
      ],
      "name": "postMessage",
      "outputs": [],
      "stateMutability": "nonpayable",
      "type": "function"
    },
    {
      "inputs": [],
      "name": "totalMessages",
      "outputs": [
        {
          "internalType": "uint256",
          "name": "",
          "type": "uint256"
        }
      ],
      "stateMutability": "view",
      "type": "function"
    },
    {
      "inputs": [
        {
          "internalType": "address",
          "name": "wallet",
          "type": "address"
        }
      ],
      "name": "walletRoomKey",
      "outputs": [
        {
          "internalType": "bytes32",
          "name": "",
          "type": "bytes32"
        }
      ],
      "stateMutability": "pure",
      "type": "function"
    }
  ],
  "bytecode": "0x608060405234801561001057600080fd5b50610cc9806100206000396000f3fe608060405234801561001057600080fd5b506004361061007d5760003560e01c8063951166c01161005b578063951166c0146100c55780639c7f4a82146100cd578063b86d12a0146100e0578063d31059e9146100f557600080fd5b80631f08279214610082578063417763c51461009d57806386f79edb146100a5575b600080fd5b61008a600081565b6040519081526020015b60405180910390f35b61008a60b481565b6100b86100b33660046108bd565b610115565b6040516100949190610958565b60005461008a565b61008a6100db366004610972565b61028d565b6100f36100ee36600461099b565b6102cf565b005b610108610103366004610a17565b61057d565b6040516100949190610a39565b604080516080810182526000808252602082018190529181018290526060808201529054821061018c5760405162461bcd60e51b815260206004820152601160248201527f4d657373656e6765723a2062616420696400000000000000000000000000000060448201526064015b60405180910390fd5b6000828154811061019f5761019f610a9b565b600091825260209182902060408051608081018252600390930290910180546001600160a01b038116845267ffffffffffffffff600160a01b909104169383019390935260018301549082015260028201805491929160608401919061020490610ab1565b80601f016020809104026020016040519081016040528092919081815260200182805461023090610ab1565b801561027d5780601f106102525761010080835404028352916020019161027d565b820191906000526020600020905b81548152906001019060200180831161026057829003601f168201915b5050505050815250509050919050565b60408051606083901b6bffffffffffffffffffffffff191660208083019190915282516014818403018152603490920190925280519101206000905b92915050565b600082828080601f0160208091040260200160405190810160405280939291908181526020018383808284376000920191909152505082519293505050806103595760405162461bcd60e51b815260206004820152601860248201527f4d657373656e6765723a20656d707479206d65737361676500000000000000006044820152606401610183565b60b48111156103aa5760405162461bcd60e51b815260206004820152601b60248201527f4d657373656e6765723a206d65737361676520746f6f206c6f6e6700000000006044820152606401610183565b8415806103ec5750604080513360601b6bffffffffffffffffffffffff1916602080830191909152825160148184030181526034909201909252805191012085145b6104385760405162461bcd60e51b815260206004820152601760248201527f4d657373656e6765723a20696e76616c696420726f6f6d0000000000000000006044820152606401610183565b60008054604080516080810182523381524267ffffffffffffffff81166020808401919091528284018b90528351601f8a0182900482028101820190945288845290949260608301918a908a90819084018382808284376000920182905250939094525050835460018181018655948252602091829020845160039092020180549285015167ffffffffffffffff16600160a01b027fffffffff000000000000000000000000000000000000000000000000000000009093166001600160a01b0390921691909117919091178155604083015193810193909355506060810151909190600282019061052a9082610b50565b50505086336001600160a01b0316827f2855f42e2f87fe19575ffecd76ed1fbe2b877fffb5073c47d718928f8928db50858a8a60405161056c93929190610c10565b60405180910390a450505050505050565b6060816000036105d85760408051600080825260208201909252906105d0565b604080516080810182526000808252602080830182905292820152606080820152825260001990920191018161059d5790505b5090506102c9565b600080549081900361063657604080516000808252602082019092529061062d565b60408051608081018252600080825260208083018290529282015260608082015282526000199092019101816105fa5790505b509150506102c9565b60008184116106455783610647565b815b90508067ffffffffffffffff81111561066257610662610aeb565b6040519080825280602002602001820160405280156106b357816020015b60408051608081018252600080825260208083018290529282015260608082015282526000199092019101816106805790505b5092508160005b6000821180156106c957508281105b156108015760018203915060008083815481106106e8576106e8610a9b565b906000526020600020906003020190508781600101541461070957506106ba565b6040805160808101825282546001600160a01b0381168252600160a01b900467ffffffffffffffff1660208201526001830154918101919091526002820180548391606084019161075990610ab1565b80601f016020809104026020016040519081016040528092919081815260200182805461078590610ab1565b80156107d25780601f106107a7576101008083540402835291602001916107d2565b820191906000526020600020905b8154815290600101906020018083116107b557829003601f168201915b5050505050815250508683815181106107ed576107ed610a9b565b6020908102919091010152506001016106ba565b80855260005b610812600283610c50565b8110156108b257600086828151811061082d5761082d610a9b565b602002602001015190506000826001856108479190610c72565b6108519190610c72565b905087818151811061086557610865610a9b565b602002602001015188848151811061087f5761087f610a9b565b60200260200101819052508188828151811061089d5761089d610a9b565b60209081029190910101525050600101610807565b505050505092915050565b6000602082840312156108cf57600080fd5b5035919050565b6001600160a01b0381511682526000602067ffffffffffffffff81840151168185015260408301516040850152606083015160806060860152805180608087015260005b818110156109365782810184015187820160a00152830161091a565b50600060a0828801015260a0601f19601f830116870101935050505092915050565b60208152600061096b60208301846108d6565b9392505050565b60006020828403121561098457600080fd5b81356001600160a01b038116811461096b57600080fd5b6000806000604084860312156109b057600080fd5b83359250602084013567ffffffffffffffff808211156109cf57600080fd5b818601915086601f8301126109e357600080fd5b8135818111156109f257600080fd5b876020828501011115610a0457600080fd5b6020830194508093505050509250925092565b60008060408385031215610a2a57600080fd5b50508035926020909101359150565b6000602080830181845280855180835260408601915060408160051b870101925083870160005b82811015610a8e57603f19888603018452610a7c8583516108d6565b94509285019290850190600101610a60565b5092979650505050505050565b634e487b7160e01b600052603260045260246000fd5b600181811c90821680610ac557607f821691505b602082108103610ae557634e487b7160e01b600052602260045260246000fd5b50919050565b634e487b7160e01b600052604160045260246000fd5b601f821115610b4b57600081815260208120601f850160051c81016020861015610b285750805b601f850160051c820191505b81811015610b4757828155600101610b34565b5050505b505050565b815167ffffffffffffffff811115610b6a57610b6a610aeb565b610b7e81610b788454610ab1565b84610b01565b602080601f831160018114610bb35760008415610b9b5750858301515b600019600386901b1c1916600185901b178555610b47565b600085815260208120601f198616915b82811015610be257888601518255948401946001909101908401610bc3565b5085821015610c005787850151600019600388901b60f8161c191681555b5050505050600190811b01905550565b67ffffffffffffffff8416815260406020820152816040820152818360608301376000818301606090810191909152601f909201601f1916010192915050565b600082610c6d57634e487b7160e01b600052601260045260246000fd5b500490565b818103818111156102c957634e487b7160e01b600052601160045260246000fdfea26469706673582212204d4c691f5c65699d00a561c87695021b41ab89314bfdc3824000ab4247ca593964736f6c63430008140033",
  "linkReferences": {},
  "deployedLinkReferences": {}
}