{
  "_format": "hh-sol-artifact-1",
  "contractName": "MinersRoomDonate",
  "sourceName": "contracts/MinersRoomDonate.sol",
  "abi": [
    {
      "anonymous": false,
      "inputs": [
        {
          "indexed": true,
          "internalType": "address",
          "name": "from",
          "type": "address"
        },
        {
          "indexed": false,
          "internalType": "uint256",
          "name": "amount",
          "type": "uint256"
        }
      ],
      "name": "Donation",
      "type": "event"
    },
    {
      "inputs": [],
      "name": "RECIPIENT",
      "outputs": [
        {
          "internalType": "address",
          "name": "",
          "type": "address"
        }
      ],
      "stateMutability": "view",
      "type": "function"
    },
    {
      "inputs": [],
      "name": "donate",
      "outputs": [],
      "stateMutability": "payable",
      "type": "function"
    }
  ],
  "bytecode": "0x608060405234801561001057600080fd5b506101f6806100206000396000f3fe6080604052600436106100295760003560e01c80630d9019e11461002e578063ed88c68e1461007e575b600080fd5b34801561003a57600080fd5b50610055726a2868356044940beb8773b0ca13a2b0a4af6281565b60405173ffffffffffffffffffffffffffffffffffffffff909116815260200160405180910390f35b610086610088565b005b600034116100dd5760405162461bcd60e51b815260206004820152601660248201527f4d696e657273526f6f6d3a207a65726f2076616c75650000000000000000000060448201526064015b60405180910390fd5b604051600090726a2868356044940beb8773b0ca13a2b0a4af629034908381818185875af1925050503d8060008114610132576040519150601f19603f3d011682016040523d82523d6000602084013e610137565b606091505b50509050806101885760405162461bcd60e51b815260206004820152601b60248201527f4d696e657273526f6f6d3a207472616e73666572206661696c6564000000000060448201526064016100d4565b60405134815233907f5d8bc849764969eb1bcc6d0a2f55999d0167c1ccec240a4f39cf664ca9c4148e9060200160405180910390a25056fea264697066735822122032bca5e36b0f630e5fcacb127e84a23200b2e74c1a299732bf1054cde3186f0264736f6c63430008140033",
  "linkReferences": {},
  "deployedLinkReferences": {}
}