{
  "_format": "hh-sol-artifact-1",
  "contractName": "TapCounter",
  "sourceName": "contracts/TapCounter.sol",
  "abi": [
    {
      "anonymous": false,
      "inputs": [
        {
          "indexed": true,
          "internalType": "address",
          "name": "player",
          "type": "address"
        },
        {
          "indexed": false,
          "internalType": "uint256",
          "name": "newTotal",
          "type": "uint256"
        }
      ],
      "name": "TenTapsCommitted",
      "type": "event"
    },
    {
      "inputs": [],
      "name": "FEE_PER_BATCH",
      "outputs": [
        {
          "internalType": "uint256",
          "name": "",
          "type": "uint256"
        }
      ],
      "stateMutability": "view",
      "type": "function"
    },
    {
      "inputs": [],
      "name": "FEE_RECIPIENT",
      "outputs": [
        {
          "internalType": "address",
          "name": "",
          "type": "address"
        }
      ],
      "stateMutability": "view",
      "type": "function"
    },
    {
      "inputs": [],
      "name": "TAP_BATCH",
      "outputs": [
        {
          "internalType": "uint256",
          "name": "",
          "type": "uint256"
        }
      ],
      "stateMutability": "view",
      "type": "function"
    },
    {
      "inputs": [],
      "name": "commitTenTapsAndPay",
      "outputs": [],
      "stateMutability": "payable",
      "type": "function"
    },
    {
      "inputs": [
        {
          "internalType": "address",
          "name": "",
          "type": "address"
        }
      ],
      "name": "totalTaps",
      "outputs": [
        {
          "internalType": "uint256",
          "name": "",
          "type": "uint256"
        }
      ],
      "stateMutability": "view",
      "type": "function"
    }
  ],
  "bytecode": "0x608060405234801561001057600080fd5b5061034a806100206000396000f3fe60806040526004361061005a5760003560e01c806331a049cc1161004357806331a049cc1461009857806357d59fbc146100c5578063ebd09054146100da57600080fd5b80630eae2cd21461005f578063252903bc1461008e575b600080fd5b34801561006b57600080fd5b5061007b678ac7230489e8000081565b6040519081526020015b60405180910390f35b610096610126565b005b3480156100a457600080fd5b5061007b6100b3366004610297565b60006020819052908152604090205481565b3480156100d157600080fd5b5061007b600a81565b3480156100e657600080fd5b50610101726a2868356044940beb8773b0ca13a2b0a4af6281565b60405173ffffffffffffffffffffffffffffffffffffffff9091168152602001610085565b678ac7230489e8000034146101825760405162461bcd60e51b815260206004820152600c60248201527f6e6565642031302051554149000000000000000000000000000000000000000060448201526064015b60405180910390fd5b3360009081526020819052604081208054600a92906101a29084906102d4565b9091555050604051600090726a2868356044940beb8773b0ca13a2b0a4af629034908381818185875af1925050503d80600081146101fc576040519150601f19603f3d011682016040523d82523d6000602084013e610201565b606091505b50509050806102525760405162461bcd60e51b815260206004820152600f60248201527f7472616e73666572206661696c656400000000000000000000000000000000006044820152606401610179565b33600081815260208181526040918290205491519182527f6cfbb6b5dda8a561b6c2f7d1f7322004391578f045de6b7e97052ad1674cceab910160405180910390a250565b6000602082840312156102a957600080fd5b813573ffffffffffffffffffffffffffffffffffffffff811681146102cd57600080fd5b9392505050565b8082018082111561030e577f4e487b7100000000000000000000000000000000000000000000000000000000600052601160045260246000fd5b9291505056fea2646970667358221220796dd8c7c4a695515e0a636d87fc3ca05c437844d08e500b9c49ac2e330c5b9a64736f6c63430008140033",
  "linkReferences": {},
  "deployedLinkReferences": {}
}